{
  "_format": "hh-sol-artifact-1",
  "contractName": "DPSLendingUniswapLiquidity",
  "sourceName": "contracts/DPSLendingUniswapLiquidity.sol",
  "abi": [
    {
      "inputs": [
        {
          "internalType": "address",
          "name": "_positionManager",
          "type": "address"
        }
      ],
      "stateMutability": "nonpayable",
      "type": "constructor"
    },
    {
      "anonymous": false,
      "inputs": [
        {
          "indexed": true,
          "internalType": "address",
          "name": "_from",
          "type": "address"
        },
        {
          "indexed": true,
          "internalType": "uint256",
          "name": "_loanIndex",
          "type": "uint256"
        }
      ],
      "name": "LoanCreated",
      "type": "event"
    },
    {
      "anonymous": false,
      "inputs": [
        {
          "indexed": true,
          "internalType": "uint256",
          "name": "_loanIndex",
          "type": "uint256"
        }
      ],
      "name": "LoanUpdated",
      "type": "event"
    },
    {
      "inputs": [],
      "name": "_dpstDeployer",
      "outputs": [
        {
          "internalType": "address",
          "name": "",
          "type": "address"
        }
      ],
      "stateMutability": "view",
      "type": "function"
    },
    {
      "inputs": [
        {
          "internalType": "address",
          "name": "",
          "type": "address"
        },
        {
          "internalType": "uint256",
          "name": "",
          "type": "uint256"
        }
      ],
      "name": "_loanByBorrowers",
      "outputs": [
        {
          "internalType": "uint256",
          "name": "",
          "type": "uint256"
        }
      ],
      "stateMutability": "view",
      "type": "function"
    },
    {
      "inputs": [
        {
          "internalType": "address",
          "name": "",
          "type": "address"
        },
        {
          "internalType": "uint256",
          "name": "",
          "type": "uint256"
        }
      ],
      "name": "_loanByLenders",
      "outputs": [
        {
          "internalType": "uint256",
          "name": "",
          "type": "uint256"
        }
      ],
      "stateMutability": "view",
      "type": "function"
    },
    {
      "inputs": [
        {
          "internalType": "uint256",
          "name": "",
          "type": "uint256"
        }
      ],
      "name": "_loans",
      "outputs": [
        {
          "internalType": "address",
          "name": "lender",
          "type": "address"
        },
        {
          "internalType": "address",
          "name": "borrower",
          "type": "address"
        },
        {
          "internalType": "uint256",
          "name": "tokenId",
          "type": "uint256"
        },
        {
          "internalType": "uint256",
          "name": "loanAmount",
          "type": "uint256"
        },
        {
          "internalType": "uint256",
          "name": "creationTime",
          "type": "uint256"
        },
        {
          "internalType": "uint256",
          "name": "startTime",
          "type": "uint256"
        },
        {
          "internalType": "uint256",
          "name": "endTime",
          "type": "uint256"
        },
        {
          "internalType": "address",
          "name": "acceptedToken",
          "type": "address"
        },
        {
          "internalType": "bool",
          "name": "isActive",
          "type": "bool"
        },
        {
          "internalType": "uint256",
          "name": "loanIndex",
          "type": "uint256"
        }
      ],
      "stateMutability": "view",
      "type": "function"
    },
    {
      "inputs": [],
      "name": "_loansIndex",
      "outputs": [
        {
          "internalType": "uint256",
          "name": "",
          "type": "uint256"
        }
      ],
      "stateMutability": "view",
      "type": "function"
    },
    {
      "inputs": [
        {
          "internalType": "address",
          "name": "",
          "type": "address"
        }
      ],
      "name": "_whitelistedTokens",
      "outputs": [
        {
          "internalType": "bool",
          "name": "",
          "type": "bool"
        }
      ],
      "stateMutability": "view",
      "type": "function"
    },
    {
      "inputs": [
        {
          "internalType": "uint256",
          "name": "loanIndex",
          "type": "uint256"
        }
      ],
      "name": "borrowNFT",
      "outputs": [],
      "stateMutability": "nonpayable",
      "type": "function"
    },
    {
      "inputs": [
        {
          "internalType": "uint256",
          "name": "loanIndex",
          "type": "uint256"
        }
      ],
      "name": "canClaimFees",
      "outputs": [
        {
          "internalType": "bool",
          "name": "_canClaim",
          "type": "bool"
        }
      ],
      "stateMutability": "view",
      "type": "function"
    },
    {
      "inputs": [
        {
          "internalType": "uint256",
          "name": "loanIndex",
          "type": "uint256"
        }
      ],
      "name": "claimFees",
      "outputs": [],
      "stateMutability": "nonpayable",
      "type": "function"
    },
    {
      "inputs": [
        {
          "internalType": "uint256",
          "name": "tokenId",
          "type": "uint256"
        },
        {
          "internalType": "uint256",
          "name": "loanAmount",
          "type": "uint256"
        },
        {
          "internalType": "uint256",
          "name": "loanDuration",
          "type": "uint256"
        },
        {
          "internalType": "address",
          "name": "acceptedToken",
          "type": "address"
        }
      ],
      "name": "depositNFT",
      "outputs": [],
      "stateMutability": "nonpayable",
      "type": "function"
    },
    {
      "inputs": [
        {
          "internalType": "uint256",
          "name": "index",
          "type": "uint256"
        }
      ],
      "name": "getLoanInfo",
      "outputs": [
        {
          "components": [
            {
              "internalType": "address",
              "name": "lender",
              "type": "address"
            },
            {
              "internalType": "address",
              "name": "borrower",
              "type": "address"
            },
            {
              "internalType": "uint256",
              "name": "tokenId",
              "type": "uint256"
            },
            {
              "internalType": "uint256",
              "name": "loanAmount",
              "type": "uint256"
            },
            {
              "internalType": "uint256",
              "name": "creationTime",
              "type": "uint256"
            },
            {
              "internalType": "uint256",
              "name": "startTime",
              "type": "uint256"
            },
            {
              "internalType": "uint256",
              "name": "endTime",
              "type": "uint256"
            },
            {
              "internalType": "address",
              "name": "acceptedToken",
              "type": "address"
            },
            {
              "internalType": "bool",
              "name": "isActive",
              "type": "bool"
            },
            {
              "internalType": "uint256",
              "name": "loanIndex",
              "type": "uint256"
            }
          ],
          "internalType": "struct DPSLendingUniswapLiquidity.Loan",
          "name": "",
          "type": "tuple"
        }
      ],
      "stateMutability": "view",
      "type": "function"
    },
    {
      "inputs": [
        {
          "internalType": "address",
          "name": "",
          "type": "address"
        },
        {
          "internalType": "address",
          "name": "",
          "type": "address"
        },
        {
          "internalType": "uint256",
          "name": "",
          "type": "uint256"
        },
        {
          "internalType": "bytes",
          "name": "",
          "type": "bytes"
        }
      ],
      "name": "onERC721Received",
      "outputs": [
        {
          "internalType": "bytes4",
          "name": "",
          "type": "bytes4"
        }
      ],
      "stateMutability": "pure",
      "type": "function"
    },
    {
      "inputs": [],
      "name": "positionManager",
      "outputs": [
        {
          "internalType": "contract INonfungiblePositionManager",
          "name": "",
          "type": "address"
        }
      ],
      "stateMutability": "view",
      "type": "function"
    },
    {
      "inputs": [
        {
          "internalType": "uint256",
          "name": "loanIndex",
          "type": "uint256"
        },
        {
          "internalType": "uint256",
          "name": "loanDuration",
          "type": "uint256"
        },
        {
          "internalType": "uint256",
          "name": "loanAmount",
          "type": "uint256"
        }
      ],
      "name": "reactivateLoan",
      "outputs": [],
      "stateMutability": "nonpayable",
      "type": "function"
    },
    {
      "inputs": [
        {
          "internalType": "address",
          "name": "token",
          "type": "address"
        },
        {
          "internalType": "bool",
          "name": "state",
          "type": "bool"
        }
      ],
      "name": "whitelistToken",
      "outputs": [],
      "stateMutability": "nonpayable",
      "type": "function"
    },
    {
      "inputs": [
        {
          "internalType": "uint256",
          "name": "loanIndex",
          "type": "uint256"
        }
      ],
      "name": "withdrawNFT",
      "outputs": [],
      "stateMutability": "nonpayable",
      "type": "function"
    }
  ],
  "bytecode": "0x608060405234801561001057600080fd5b50604051611a0d380380611a0d83398101604081905261002f9161009d565b600280546001600160a01b0319166001600160a01b0392909216919091179055730cb80b1c0e6aebb031a7ec26219ab162f0f9bc2b60005260046020527f19f794e021ed292b16c0c6f1ad98de1f7701fa9b4ab5a48f2df4498311e1dab4805460ff191660011790556100cb565b6000602082840312156100ae578081fd5b81516001600160a01b03811681146100c4578182fd5b9392505050565b611933806100da6000396000f3fe608060405234801561001057600080fd5b50600436106101005760003560e01c80636af7e27a11610097578063ac68a74811610066578063ac68a74814610214578063bd5c569b14610227578063be893b4714610250578063f422dfb41461026357610100565b80636af7e27a146101cf57806371a50a80146101d7578063791b98bc146101ec5780639d6cf265146101f457610100565b8063150b7a02116100d3578063150b7a02146101765780632000109e14610196578063512908dd146101a9578063529062fa146101bc57610100565b8063023245d714610105578063063cf6591461011a5780630714012c146101435780630ffb1d8b14610163575b600080fd5b610118610113366004611294565b610276565b005b61012d61012836600461124d565b610524565b60405161013a91906118ce565b60405180910390f35b610156610151366004611294565b610555565b60405161013a919061183e565b610118610171366004611215565b61060e565b61018961018436600461117b565b610663565b60405161013a91906114e3565b6101186101a43660046112fa565b610674565b61012d6101b736600461124d565b610925565b6101186101ca366004611294565b610941565b61012d610ae1565b6101df610ae7565b60405161013a919061142c565b6101df610af6565b610207610202366004611158565b610b05565b60405161013a91906114d8565b610118610222366004611294565b610b1a565b61023a610235366004611294565b610d74565b60405161013a9a99989796959493929190611464565b61011861025e3660046112cf565b610dec565b610207610271366004611294565b610f7a565b600080828154811061028457fe5b6000918252602090912060099091020180549091506001600160a01b031633146102c95760405162461bcd60e51b81526004016102c090611598565b60405180910390fd5b60018101546001600160a01b0316156103c95780600601544210156103005760405162461bcd60e51b81526004016102c09061163e565b60018101546001600160a01b03166000908152600660205260408120805490915b818110156103ac57836008015483828154811061033a57fe5b906000526020600020015414156103a45782600183038154811061035a57fe5b906000526020600020015483828154811061037157fe5b90600052602060002001819055508280548061038957fe5b600190038181906000526020600020016000905590556103ac565b600101610321565b5050506001810180546001600160a01b0319169055600060058201555b600280548254918301546040516323b872dd60e01b81526001600160a01b03928316936323b872dd936104059330939290911691600401611440565b600060405180830381600087803b15801561041f57600080fd5b505af1158015610433573d6000803e3d6000fd5b50505060078201805460ff60a01b191690555080546001600160a01b03166000908152600560205260408120805490915b818110156104ef57836008015483828154811061047d57fe5b906000526020600020015414156104e75782600183038154811061049d57fe5b90600052602060002001548382815481106104b457fe5b9060005260206000200181905550828054806104cc57fe5b600190038181906000526020600020016000905590556104ef565b600101610464565b5060088301546040517fe241f60b320f423fa6739f78ec54dd807f44c2c903f73d320b1470cbb2201bec90600090a250505050565b6006602052816000526040600020818154811061054057600080fd5b90600052602060002001600091509150505481565b61055d61107a565b6000828154811061056a57fe5b6000918252602091829020604080516101408101825260099390930290910180546001600160a01b03908116845260018201548116948401949094526002810154918301919091526003810154606083015260048101546080830152600581015460a0830152600681015460c0830152600781015492831660e0830152600160a01b90920460ff16151561010082015260089091015461012082015290505b919050565b6003546001600160a01b031633146106385760405162461bcd60e51b81526004016102c0906114f8565b6001600160a01b03919091166000908152600460205260409020805460ff1916911515919091179055565b630a85bd0160e11b95945050505050565b6001600160a01b03811660009081526004602052604090205460ff166106ac5760405162461bcd60e51b81526004016102c09061176d565b4282116106cb5760405162461bcd60e51b81526004016102c0906115cd565b6002546040516323b872dd60e01b81526001600160a01b03909116906323b872dd906106ff90339030908990600401611440565b600060405180830381600087803b15801561071957600080fd5b505af115801561072d573d6000803e3d6000fd5b505050506000604051806101400160405280336001600160a01b0316815260200160006001600160a01b0316815260200186815260200185815260200142815260200160008152602001848152602001836001600160a01b03168152602001600115158152602001600080549050815250908060018154018082558091505060019003906000526020600020906009020160009091909190915060008201518160000160006101000a8154816001600160a01b0302191690836001600160a01b0316021790555060208201518160010160006101000a8154816001600160a01b0302191690836001600160a01b0316021790555060408201518160020155606082015181600301556080820151816004015560a0820151816005015560c0820151816006015560e08201518160070160006101000a8154816001600160a01b0302191690836001600160a01b031602179055506101008201518160070160146101000a81548160ff02191690831515021790555061012082015181600801555050600160008054905003336001600160a01b03167fff6a5b0e4cacd5965a6a32e6b962e1c85c90ea06d047a28293fe91759a79f28960405160405180910390a3505033600090815260056020908152604082208254815460018181018455928552928420600019909101920191909155905490555050565b6005602052816000526040600020818154811061054057600080fd5b600080828154811061094f57fe5b6000918252602090912060099091020160018101549091506001600160a01b03161561098d5760405162461bcd60e51b81526004016102c0906116f3565b6007810154600160a01b900460ff166109b85760405162461bcd60e51b81526004016102c0906116ac565b6007810154815460038301546040516323b872dd60e01b81526001600160a01b039384169384936323b872dd936109f793339390921691600401611440565b602060405180830381600087803b158015610a1157600080fd5b505af1158015610a25573d6000803e3d6000fd5b505050506040513d601f19601f82011682018060405250810190610a499190611278565b506001820180546001600160a01b03191633179055426005830181905560048301546006840180549190920301905560078201805460ff60a01b1916905560088201546040517fe241f60b320f423fa6739f78ec54dd807f44c2c903f73d320b1470cbb2201bec90600090a2503360009081526006602090815260408220600890930154835460018101855593835291209091015550565b60015481565b6003546001600160a01b031681565b6002546001600160a01b031681565b60046020526000908152604090205460ff1681565b6000808281548110610b2857fe5b6000918252602090912060099091020160018101549091506001600160a01b03163314610b675760405162461bcd60e51b81526004016102c090611675565b80600601544210610b8a5760405162461bcd60e51b81526004016102c09061160f565b600080610b9a8360020154610fd9565b91509150610ba66110ea565b506040805160808101825260028086015482523060208301526001600160801b03828401819052606083015254915163fc6f786560e01b8152909160009182916001600160a01b03169063fc6f786590610c049086906004016117fb565b6040805180830381600087803b158015610c1d57600080fd5b505af1158015610c31573d6000803e3d6000fd5b505050506040513d601f19601f82011682018060405250810190610c5591906112ac565b600188015460405163a9059cbb60e01b81529294509092506001600160a01b038088169263a9059cbb92610c8f92169086906004016114bf565b602060405180830381600087803b158015610ca957600080fd5b505af1158015610cbd573d6000803e3d6000fd5b505050506040513d601f19601f82011682018060405250810190610ce19190611278565b50600186015460405163a9059cbb60e01b81526001600160a01b038681169263a9059cbb92610d18929091169085906004016114bf565b602060405180830381600087803b158015610d3257600080fd5b505af1158015610d46573d6000803e3d6000fd5b505050506040513d601f19601f82011682018060405250810190610d6a9190611278565b5050505050505050565b60008181548110610d8457600080fd5b60009182526020909120600990910201805460018201546002830154600384015460048501546005860154600687015460078801546008909801546001600160a01b039788169950958716979496939592949193909290821691600160a01b900460ff16908a565b6000808481548110610dfa57fe5b6000918252602090912060099091020180549091506001600160a01b03163314610e365760405162461bcd60e51b81526004016102c09061172a565b60018101546001600160a01b031615610e615760405162461bcd60e51b81526004016102c090611561565b6007810154600160a01b900460ff1615610e8d5760405162461bcd60e51b81526004016102c0906117cb565b60028054908201546040516323b872dd60e01b81526001600160a01b03909216916323b872dd91610ec49133913091600401611440565b600060405180830381600087803b158015610ede57600080fd5b505af1158015610ef2573d6000803e3d6000fd5b50504260058401555050600681018390556003810182905560078101805460ff60a01b1916600160a01b17905560088101546040517fe241f60b320f423fa6739f78ec54dd807f44c2c903f73d320b1470cbb2201bec90600090a233600090815260056020908152604082206008909301548354600181018555938352912090910155505050565b60008060008381548110610f8a57fe5b6000918252602090912060099091020160018101549091506001600160a01b03163314610fbb576000915050610609565b80600601544210610fd0576000915050610609565b50600192915050565b60025460405163133f757160e31b81526000918291829182916001600160a01b03909116906399fbab88906110129088906004016118ce565b6101806040518083038186803b15801561102b57600080fd5b505afa15801561103f573d6000803e3d6000fd5b505050506040513d601f19601f82011682018060405250810190611063919061133a565b50979d50959b505050505050505050505050915091565b60405180610140016040528060006001600160a01b0316815260200160006001600160a01b03168152602001600081526020016000815260200160008152602001600081526020016000815260200160006001600160a01b03168152602001600015158152602001600081525090565b60408051608081018252600080825260208201819052918101829052606081019190915290565b8051610609816118d7565b8051600281900b811461060957600080fd5b80516001600160801b038116811461060957600080fd5b805162ffffff8116811461060957600080fd5b600060208284031215611169578081fd5b8135611174816118d7565b9392505050565b600080600080600060808688031215611192578081fd5b853561119d816118d7565b945060208601356111ad816118d7565b935060408601359250606086013567ffffffffffffffff808211156111d0578283fd5b818801915088601f8301126111e3578283fd5b8135818111156111f1578384fd5b896020828501011115611202578384fd5b9699959850939650602001949392505050565b60008060408385031215611227578182fd5b8235611232816118d7565b91506020830135611242816118ef565b809150509250929050565b6000806040838503121561125f578182fd5b823561126a816118d7565b946020939093013593505050565b600060208284031215611289578081fd5b8151611174816118ef565b6000602082840312156112a5578081fd5b5035919050565b600080604083850312156112be578182fd5b505080516020909101519092909150565b6000806000606084860312156112e3578283fd5b505081359360208301359350604090920135919050565b6000806000806080858703121561130f578384fd5b843593506020850135925060408501359150606085013561132f816118d7565b939692955090935050565b6000806000806000806000806000806000806101808d8f03121561135c578687fd5b8c516bffffffffffffffffffffffff81168114611377578788fd5b9b5061138560208e01611111565b9a5061139360408e01611111565b99506113a160608e01611111565b98506113af60808e01611145565b97506113bd60a08e0161111c565b96506113cb60c08e0161111c565b95506113d960e08e0161112e565b94506101008d015193506101208d015192506113f86101408e0161112e565b91506114076101608e0161112e565b90509295989b509295989b509295989b565b6001600160a01b03169052565b15159052565b6001600160a01b0391909116815260200190565b6001600160a01b039384168152919092166020820152604081019190915260600190565b6001600160a01b039a8b168152988a1660208a015260408901979097526060880195909552608087019390935260a086019190915260c085015290931660e08301529115156101008201526101208101919091526101400190565b6001600160a01b03929092168252602082015260400190565b901515815260200190565b6001600160e01b031991909116815260200190565b60208082526043908201527f4f6e6c7920445053542070726f746f636f6c206f776e6572732063616e20616c60408201527f6c6f77206e657720455243323020746f2062652075736564206173207061796d606082015262195b9d60ea1b608082015260a00190565b60208082526019908201527f4e46542069732063757272656e746c7920626f72726f77656400000000000000604082015260600190565b6020808252818101527f4f6e6c79206c656e6465722063616e20776974686472617720746865204e4654604082015260600190565b60208082526022908201527f496e76616c69642064617465206475726174696f6e20666f7220746865206c6f60408201526130b760f11b606082015260800190565b602080825260159082015274131bd85b881c195c9a5bd9081a185cc8195b991959605a1b604082015260600190565b6020808252601d908201527f4c6f616e20706572696f6420686173206e6f7420656e64656420796574000000604082015260600190565b6020808252601c908201527f4f6e6c7920626f72726f7765722063616e20636c61696d206665657300000000604082015260600190565b60208082526027908201527f4c6f616e206973206e6f74206163746976652c20796f752063616e277420626f6040820152661c9c9bddc81a5d60ca1b606082015260800190565b60208082526018908201527f4e465420697320616c726561647920626f72726f776564210000000000000000604082015260600190565b60208082526023908201527f4f6e6c79206c656e6465722063616e207265616374697661746520746865206c60408201526237b0b760e91b606082015260800190565b602080825260409082018190527f596f752063616e277420757365207468697320746f6b656e20666f7220746865908201527f207061796d656e7420666f7220706f74656e7469616c20626f72726f77657273606082015260800190565b6020808252601690820152754c6f616e20697320616c72656164792061637469766560501b604082015260600190565b815181526020808301516001600160a01b0316908201526040808301516001600160801b0390811691830191909152606092830151169181019190915260800190565b600061014082019050611852828451611419565b60208301516118646020840182611419565b5060408301516040830152606083015160608301526080830151608083015260a083015160a083015260c083015160c083015260e08301516118a960e0840182611419565b50610100808401516118bd82850182611426565b505061012092830151919092015290565b90815260200190565b6001600160a01b03811681146118ec57600080fd5b50565b80151581146118ec57600080fdfea264697066735822122051065334ed0cd8cce3cce108cf33bbcc1a949149960dcb8a28d337d1ae04736f64736f6c63430007050033",
  "linkReferences": {},
  "deployedLinkReferences": {}
}